:020000040800F2
:1000000080050020693B0008553B0008573B00086D
:10001000593B00085B3B00085D3B00080000000006
:100020000000000000000000000000005F3B00082E
:10003000613B000800000000633B0008653B0008CE
:10004000A93B0008AD3B0008B13B0008B53B0008E8
:10005000B93B0008BD3B0008C13B0008C53B000898
:10006000C93B0008CD3B0008D13B0008D53B000848
:10007000D93B0008DD3B0008E13B0008E53B0008F8
:10008000E93B0008ED3B0008F13B0008F53B0008A8
:10009000F93B0008FD3B0008013C0008053C000856
:1000A000093C00080D3C0008113C0008153C000804
:1000B000193C00081D3C0008213C0008253C0008B4
:1000C000293C00082D3C0008313C0008353C000864
:1000D000393C00083D3C0008413C0008453C000814
:1000E000493C00084D3C0008513C0008000000005D
:1000F0000000000000000000000000000000000000
:1001000000000000000000000000000000000000EF
:1001100000000000000000000000000000000000DF
:1001200000000000000000000000000000000000CF
:100360000000000000000000000000008200912357
:1003700082009195820091958200919582009195DD
:1003800082009195820091958200919582009195CD
:1003900082009195820091958200919582009195BD
:1003A00082009195820091958200919582009195AD
:1003B000820091958200919582009195820091959D
:1003C000820091958200919582009195820091958D
:1003D00082009146820091958200919582009195CC
:1003E000820091958200919582009195CD8C8AC66C
:1003F0000034B70AC60038B70B3F083F09C60034BF
:10040000C1003A2608C60011C100122710C60034E8
:10041000C7003AC60011C7001235010009C6001115
:10042000A100260B3F0AC60011AE0024CD8F8BB66B
:100430000A4D27484A27584A27554A27524A274FE4
:100440004A274C4A27494A27464A2603CC81674A0D
:100450002603CC81CC4A2603CC82754A2603CC8263
:10046000F24A2603CC83944A2603CC84364A2603D8
:10047000CC84D84A2603CC854FCC86133500003572
:10048000350000363500003735010008CC86273DA1
:10049000092603CC8627B60AA401A10027063564E5
:1004A0000035200435000035B60AA402A100270655
:1004B00035640036200435000036B60AA404A100D5
:1004C0002706356400372004350000373501000861
:1004D000CC86273D0927143500003335000035351B
:1004E0000000363500003735010008C60033A10092
:1004F0002703CC8627356400353564003635640023
:1005000037C60037B701C60036B700C60035CD8FF5
:10051000BDAE0017CD9171AE0017CD9025A100277B
:10052000F63500003535000036350000373505005A
:100530003335010008CC86273D09271835000033E4
:1005400035000035350000363500003735010038FC
:1005500035010008C60033A1002703CC8627B60B5F
:10056000A401A100270635640035200435000035BC
:10057000B60BA402A100270635640036200435001E
:100580000036B60BA404A10027063564003720040A
:1005900035000037C60037B701C60036B700C600C1
:1005A00035CD8FBDAE0017CD9171AE0017CD902522
:1005B000A10027F63500003535000036350000373C
:1005C0003505003335010008C60038AB01C70038D7
:1005D000C60038A1082403CC862735010038CC8614
:1005E000273D092718350000333500003535000058
:1005F00036350000373501003835010008C60033B4
:10060000A1002703CC8627B60BA401A1002706353D
:10061000640035200435000035B60BA402A1002784
:100620000635640036200435000036B60BA404A15C
:1006300000270635640037200435000037350500F3
:100640003335010008C60038AB01C70038C6003892
:10065000A1082403CC862735010038CC86273D0924
:10066000271735000039350000353564003735640B
:10067000003635000038CC838DB60B4D27084A274D
:100680002C4A27502073C60039C70035A664C00025
:1006900039C70037C60039AB01C70039C60039A1D8
:1006A0006525563501003835000039204CC6003923
:1006B000C70037A664C00039C70036C60039AB0191
:1006C000C70039C60039A165252F3502003835002D
:1006D00000392025C60039C70036A664C00039C7D6
:1006E0000035C60039AB01C70039C60039A1652500
:1006F00008350000383500003935010008CC862760
:100700003D092717350000393500003535640037BD
:100710003564003635000038CC842FB60B4D2708E1
:100720004A272C4A27502073C60039C70035A664D3
:10073000C00039C70037C60039AB05C70039C6004D
:1007400039A16525563501003835000039204CC6E1
:100750000039C70037A664C00039C70036C6003963
:10076000AB05C70039C60039A165252F3502003811
:10077000350000392025C60039C70036A664C00000
:1007800039C70035C60039AB05C70039C60039A1E5
:10079000652508350000383500003935010008CCE2
:1007A00086273D09271735000039350000353564A7
:1007B00000373564003635000038CC84D1B60B4D97
:1007C00027084A272C4A27502073C60039C700350E
:1007D000A664C00039C70037C60039AB0AC7003964
:1007E000C60039A16525563501003835000039208D
:1007F0004CC60039C70037A664C00039C70036C6EA
:100800000039AB0AC70039C60039A165252F35026A
:100810000038350000392025C60039C70036A664E7
:10082000C00039C70035C60039AB0AC70039C60059
:1008300039A165250835000038350000393501003B
:1008400008CC86273D0927163500003935000035CC
:100850003564003735000036350000382056B60BB9
:100860004D27054A2729204CC60039C70037A66402
:10087000C00039C70036C60039AB01C70039C60011
:1008800039A165252F35010038350000392025C6EE
:100890000039C70036A664C00039C70037C6003922
:1008A000AB01C70039C60039A165250835000038FD
:1008B0003500003935010008CC86273D092717355A
:1008C0000000393500003535000037350000363579
:1008D000000038CC860DB60B4D270C4A27284A2736
:1008E0004C4A276ECC860DC60039C70037C6003982
:1008F000AB01C70039C60039A165257D3501003837
:10090000350000392073A664C00039C70037C6001F
:1009100039C70036C60039AB01C70039C60039A156
:100920006525563502003835000039204CC600399F
:10093000C70037C60039C70035C60039AB01C7004C
:1009400039C60039A1652531350300383500003935
:100950002027A664C00039C70036A664C00039C786
:100960000035C60039AB01C70039C60039A165257D
:1009700008350000383500003935010008201435ED
:1009800000003535000036350000373501000835E8
:100990000000343D082710C60037B701C60036B73F
:1009A00000C60035CD8FBDCC8CD2CD8C8ACD8C8F3E
:1009B0005201B70E3F095F41B60E41D69192B70B77
:1009C0003501000A3F083F0D203BB609C70014352A
:1009D000010008C60013A1FF2609C60014A10F26B6
:1009E000023F08C60013A1002609C60014A1002674
:1009F000023F083D0A26043F0B3F083D0B2706B681
:100A00000BABFFB70B3D0B2603CC88433F0C200BF1
:100A1000CD8F526B01B60CAB01B70CB60CA1022402
:100A2000205F41B60E41581C9165905F61B60C6124
:100A300090BF0072BB00007D27D6CD8F19B70F2065
:100A4000D4B60948B709B60DAB01B70D5F41B60E74
:100A5000417B01D19186242C5F41B60E41D691890C
:100A6000110124205F41B60E41B60FD1918C2414A0
:100A70005F41B60E41D6918FB10F2408B609AA0185
:100A8000B70920325F41B60E417B01D1918C2424FD
:100A90005F41B60E41D6918F110124185F41B60E09
:100AA00041B60FD19186240C5F41B60E41D6918993
:100AB000B10F25023F0AB60DA1082607B609C700E7
:100AC000133F09B60DA1102607B609C700143F0948
:100AD000B60DA1182610B609A4FCC70015B609A4C6
:100AE00003C7002F3F09B60BA1012703CC8687B6A9
:100AF0000EA1012703CC882A5F41B60E41B60FD163
:100B0000918C241C5F41B60E41D6918FB10F2410F9
:100B1000B609AA01B7093501000A350100082020ED
:100B20005F41B60E41B60FD1918624145F41B60ED7
:100B300041D69189B10F24083501000A350100081A
:100B4000B609C70015C60013A1552610C60014A18A
:100B5000552609C60015A10126023F08C60013A1AB
:100B6000FF2610C60014A1FF2609C60015A1032602
:100B7000023F08C60013A1002703CC8687C60014D5
:100B8000A1002703CC8687C60015A1002703CC86C9
:100B9000873F08CC8687B60EA1022703CC865EB6B7
:100BA00009A1052703CC868735010008CC8687B6C6
:100BB000085B01CC8CCFCD8C8ACD8C5C3B000EBF0A
:100BC000083F0AC60032B70E3F0D3F0C72165003A5
:100BD00072175002CD8E81A10027043501000D351A
:100BE0000A000B3F002018C650064EA40FA401A116
:100BF000002606B600AB01B700B60BABFFB70B3D46
:100C00000B26E4B600A10A26043501000CB60E4DF1
:100C100027184A27674A2603CC89344A2603CC89F9
:100C2000964A2603CC89BCCC89C6350100103D0DFF
:100C30002734CD8DC1A100272DC60031A100262269
:100C4000721B500AAE001FCD9171AE001FCD9025D2
:100C5000A10027F6721A500A3501000AC6002F9229
:100C6000C708350300313D0C2603CC89D035000080
:100C7000103501003235500031CC89D035000010DC
:100C80003D0C2711C60031A1002703CC89D03503C4
:100C90000032CC89D03502003235640031CC89D0A5
:100CA0003D0D2751CD8CE1A10027423510000B3FAF
:100CB00000202EC6500ACD917CA401B7083308C687
:100CC000500A43CD917C44901B500AAE001FCD9139
:100CD00071AE001FCD9025A10027F6B60BABFFB774
:100CE0000B3D0B26CE721A500A350100103500005C
:100CF0003235030031C60031A100264035000032F4
:100D0000203A3503000B2010A6FF5F41B60B41CD02
:100D10008F8BB60BAB04B70BB60BA11425EA3501CC
:100D200000103504003220143D0C2610350000322E
:100D3000200A35000032350000313F0AC60010B7E6
:100D400000C6001044901B500AB60A32000ECC8C2C
:100D5000D63B00085201CD916BCD915DCD909DCDDC
:100D60008E26721A500C721A500A90AE001BAE00FA
:100D70000ACD90E690AE001FAE0032CD90E690AE68
:100D80000023AE0064CD90E690AE0027AE0078CD93
:100D900090E6AE007FCD9177A1AA260AAE007ECD67
:100DA0009177A155272A3F082010A6FF5F41B6087A
:100DB00041CD8F8BB608AB01B708B608A17E25EAF6
:100DC000A6AAAE007FCD8F8BA655AE007ECD8F8BB1
:100DD000CD90809A201A7B01A1032605A62BCD8DEC
:100DE00056CD8ED2A1002705A62BCD8D56CD808065
:100DF000AE001BCD9025A1002709AE001BCD90B6FB
:100E0000CD90FBAE0023CD9025A1002709AE002395
:100E1000CD90B6CD9136AE0027CD9025A1002715F7
:100E2000AE0027CD90B6C60033A1002708C6003318
:100E3000ABFFC70033961C0001CD884AA10027A153
:100E40007B01A1012607A62DCD8D5620947B01A103
:100E5000022683A66FCD8D562087CD8C8ACD8C5CE3
:100E60003B000EB70EAE0190BF0AAE0FA0BF083F09
:100E70000C3F0D350000133500001435000015350A
:100E8000AA50E02021C65001444444A401A10027F7
:100E9000129DC65001444444A401A1002705AE019F
:100EA00090BF0ACD9152BE0A5D2712BE0A5ABF0AF0
:100EB000BE085ABF08BE085D26CB4F206DAE05DCCC
:100EC000BF0820019DC65001444444A401A100274D
:100ED0000FB60EA10126223501000C2040CD915203
:100EE000C65001444444A401A10026D8BE085ABFFC
:100EF00008BE085D26E74F2031CD8F19C700305F4F
:100F000041B60E41C60030D1918C24115F41B60E1E
:100F100041D6918FC1003024043501000C3D0C27CF
:100F200007B60ECD863EB70DB60D32000ECC8CD670
:100F3000CD8C573B000A5203B70A3F093F08B60A57
:100F4000CD8AEEA10027723F0220205F41B6024108
:100F5000D60013905F61B60261961C000190BF003D
:100F600072BB0000F7B602AB01B702B602A10325BF
:100F7000DAB60ACD8AEEA100273F3F02202B5F415F
:100F8000B60241905F61B6026190BF00909672A96F
:100F9000000172B9000090F6D100132606B609AB25
:100FA00001B709B602AB01B702B602A10325CFB65D
:100FB00009A103260435010008B6085B0332000AC4
:100FC000CC8CDD88A608200588A60C2000887B0232
:100FD000887B02891E061F045F97FE1F0685848199
:100FE000891E05BF082007891E05BF0C20001E03AF
:100FF0001F05855B028188A608200588A60C2000B5
:1010000088897B04887B04891E081F045F971F085A
:10101000FE1F061E085C5CFE1F08858481891E0574
:10102000BF081E07BF0A200B891E05BF0C1E07BF85
:101030000E20001E031F07855B0481CD8CBCCD8C68
:10104000B181CD8C7BCD8CB181CD8C7481CD8C5711
:101050003F08CD8DC1A10026643F092006B609AB2B
:1010600001B709B609A1052454905F61B60961AEC4
:101070000004BF0093CD90441C0003CD9177A1FFE5
:1010800026DB3F08202D5F41B60841D60013905F54
:1010900061B60961AE0004BF0093CD9044905F61DA
:1010A000B60861BF009372BB0000CD8F8BB608AB52
:1010B00001B708B608A10425CD35010008B608CC53
:1010C0008CDDB700B600A16F2611C60011A1002665
:1010D00004A60120014FC70011200435010011C6EC
:1010E0000011A1002746B600A12B2615C60034AB7F
:1010F00001C70034C60034A110251F35000034207C
:1011000019B600A12D2613C60034ABFFC70034C6A4
:101110000034A1102504350F0034C60034AE00237E
:10112000CD8F8BC60011AE0024CD8F8B81CD8C8AE4
:101130003F0A3F0B2006B60BAB01B70BB60BA10560
:10114000244B3F083F092035905F61B60B61AE002C
:1011500004BF0093CD9044905F61B6086190BF00DA
:1011600072BB0000CD91775F41B60841D1001326D4
:1011700006B609AB01B709B608AB01B708B608A1B6
:101180000425C5B609A10426AD3501000AB60ACC6E
:101190008CD2350052503500525735005258C65245
:1011A00058A48FAA60C7525835005259C65259A444
:1011B0008FAA60C752593500525AC6525AA48FAAF4
:1011C00060C7525A3500525D3500525E3500525F9D
:1011D0003500526035805261350052623564526389
:1011E00035005269353E526A3580526D81CD8C573B
:1011F0003B000A3F0AC60016B70935010008B609C8
:10120000A103252E3F09202AB609CD8BC4A10027B2
:101210000BB609C700163501000A3F08B609AB0135
:10122000B709B609A103250A3F083D0A260435007F
:1012300000163D0826D2B60A32000ACC8CDD3F00EB
:10124000350A00023F01201B9D9D9DC650104EA4F3
:101250000FA401A1002606B601AB01B701B602AB8F
:10126000FFB7023D0226E1B601A10A2611C6003BE6
:10127000A100260E350100003501003B2004350099
:10128000003BB600813B00083F082003CD9152B6D9
:1012900008A1FF2723B608AB01B708C65001444494
:1012A00044A401A10026E59DC65001444444A40184
:1012B000A10026D8B6082002B608320008813B00FB
:1012C000083F082003CD9152B608A1FF2723B60896
:1012D000AB01B708C65001444444A401A10027E56E
:1012E0009DC65001444444A401A10027D8B608205B
:1012F00002B60832000881B7009B35AA50E035AE2F
:10130000506435565064C6505F444444A401A10063
:1013100027F41C4000B600F7C6505F4444A401A166
:101320000027F57217505F9A81B70235005250B608
:1013300001C7526635005265B600C7526835005283
:1013400067B602C7526A350052693501525D3511E0
:10135000525C350152508189FE9093855C5C905DB2
:10136000271C89FEBF00855C5C89FEBF02855C5C32
:10137000515A92D60092D7025A2AF75120D9819019
:10138000620029001300008FEB000391A2001000FF
:1013900000BF0091CE00CE002D90BF0272B00002BF
:1013A00090BE0072A9000290F32503A601814F812F
:1013B00088895EB60142891E03B6004272FB014F66
:1013C00002891E05B6014272FB015B06848189FE1B
:1013D0009093855C5C905D271289FEBF00855C5C04
:1013E000515A926F005A2AFA5120E38190AE0017A9
:1013F000AE0064CD90E6AE0023CD9177C70034AE49
:101400000024CD9177C70011815FCF002D350753A0
:1014100047357D5348350053453501534035015319
:101420004381BF0090BE0072A9000290FE92CE00E0
:1014300090BF0272BB000292CF008190AE90132049
:101440000A931C000290FE90FD909390A390252695
:10145000F081BF0090BF02BE021C000290BE00FFE0
:10146000CE002D92CF0281CE002BA305DC240BCE23
:10147000002B5CCF002B35AA50E081CD8C57520257
:10148000BF08BE081F01965CA601CD91A120F3AE56
:1014900003FF94CD91985D2703CD90CFCD89E5CC06
:1014A000919BC60031A1002708C60031ABFFC700E1
:1014B000318172115344CE002D5CCF002D804F201E
:1014C000039DAB01A11D25F981C6505F7211505AD1
:1014D000810001010000019B350050C68190CE00C3
:1014E0002DFF811C4000F681444EA40F818985CDDB
:1014F000910F8CF0F0232D46222C450A0A0A0C127B
:101500001CCC919E5F5C81CC91819D20FD8101016D
:1015100003000000000000000000000000000000C8
:1015200000000000000000000000000000000000BB
:1015300000000000000000000000000000000000AB
:10154000000000000000000000000000000000009B
:10155000000000000000000000000000000000008B
:1023600000000000000000000000000080B54FF4F5
:10237000E06000F041FC1E208DF8000000208DF888
:10238000010001208DF802008DF80300684600F07E
:1023900038FC01BD38B500208DF800006A460121E7
:1023A00045F25B0000F0BEFD0028F7D1FF208DF85C
:1023B00000006A46012145F25C0000F0B3FD0028F0
:1023C000F7D100244FF4804501E06D1C641CB4F586
:1023D000207F16DA00208DF80000DFF808080219C7
:1023E0000121284600F09EFD0028F6D19DF800004E
:1023F0004007EAD46A46012145F25F0000F0F8FD8B
:10240000F4E731BD70B5A2B001210D2000F0CFFE80
:10241000DFF8D4474FF4614020800320A0701020E3
:10242000E070DFF8C8572146284600F0DDFE18208E
:1024300020802146DFF8B80700F0D6FE00224FF4D6
:102440008041284600F026FF00224FF40041284634
:1024500000F020FFFFF78AFF01224FF48071284629
:1024600000F018FF0020A0710BE000F0A2FF01F0C7
:10247000E9F801F0D9F801F0EEF800F004FC0120D1
:10248000A071A079182800F099831B28F9D8DFE8FB
:1024900010F01D001E002A002F003C0052005B00BF
:1024A0008700CF00D400E8000D012301D801E50129
:1024B00004022F025A0276029C02C202D602E302F2
:1024C0001C001C00390346015A01DAE7CDE700F091
:1024D000DFFB002804D001F0BAF80220A071D0E799
:1024E0000220A071CDE700F0C5FB0320A071C8E772
:1024F00002221221082000F000FC002802D0032054
:10250000A071BEE70420A071BBE7012060814FF4F9
:10251000FF402061A0208DF800006A4601214FF4A1
:10252000FF4000F0FFFC002802D00420A071A8E7C3
:102530000520A071A5E701F08AF84FF47A7000F049
:1025400067FF0620A0719CE7012060814FF4FF40E7
:10255000206100208DF800006A4601214FF4FF4001
:1025600000F046FD002802D00620A07189E79DF802
:102570000000A02801D0A2280FD14FF480412846A6
:1025800000F081FEC0F10102D2B24FF48041284632
:1025900000F080FE0820A07173E70420A07170E7AE
:1025A0000C20608144F6CD002061FF208DF80000F2
:1025B0006E46707000217180307170710846F08035
:1025C000B06030734FF48041284600F05CFEC0F1EB
:1025D0000102D2B24FF48041284600F05BFE6A4609
:1025E0006189206900F004FD002802D00720A07155
:1025F00047E7307A702818D1707A642815D1B07AFC
:10260000312812D1F07A29280FD14FF48041284681
:1026100000F039FEC0F10102D2B24FF480412846E9
:1026200000F038FE0820A0712BE71720A07128E7E2
:1026300000F074FC0920A07123E70120608147F6B7
:102640009970206108218DF800106A46012100F080
:1026500069FC002802D00920A07112E70A20A071AD
:102660000FE70120608145F25F06266100208DF8AA
:1026700000006A460121304600F0BAFC002802D072
:102680000A20A071FDE69DF8000000F00A000A286B
:1026900009D10D20A07104F118020B214FF49040D4
:1026A00000F0A6FCEDE61A20A071EAE601206081A8
:1026B00045F26200206156218DF800106A46012122
:1026C00000F030FC002804D000F0C1FF0020A07111
:1026D000D7E60C20A071D4E60120608145F26200AB
:1026E0002061AE218DF800106A46012100F01AFC2D
:1026F000002811D04FF48041284600F0C4FDC0F1FD
:102700000102D2B24FF48041284600F0C3FD00F030
:102710009EFF0020A071B4E60A20A071B1E601205E
:10272000608145F264002061AE218DF800106A4698
:10273000012100F0F7FB002802D01A20A071A0E6CA
:102740001B20A0719DE60120608145F2640020619C
:1027500056218DF800106A46012100F0E3FB0028A5
:102760000FD04FF48041284600F08DFDC0F10102EA
:10277000D2B24FF48041284600F08CFD1B20A0719E
:102780007FE60120608145F25F06266100208DF81A
:1027900000006A460121304600F02AFC002802D0E1
:1027A0001A20A0716DE69DF80000000746D50B20A9
:1027B000A07145F25B00606180212171221D012121
:1027C00000F0B0FB45F25C0060617F212171221DA9
:1027D000012100F0A7FB4FF49040606100202071C0
:1027E000221D01214FF4904000F09CFB002807D0EF
:1027F0001A20A07104E0221D0121304600F0F8FBF0
:1028000020794007F7D5221D01214FF4904000F0B8
:10281000EFFB2079002801D01A20A071FFF7BAFD44
:1028200000F051FC04F118020B214FF4904000F02D
:10283000DFFB4FF47A7000F0EBFD22E61A20A07166
:102840001FE6002060814FF4004020614FF40050EB
:10285000A0810220E0711020A07112E645F25B0019
:102860006061E1790A0002D100228DF8002001297F
:1028700002D140228DF80020022902D101218DF8D9
:1028800000106A46012100F04DFB002802D00E2006
:10289000A071F6E50F20A071F3E545F25C006061E0
:1028A000E1790A0002D1FF228DF80020012902D12E
:1028B000BF228DF80020022902D1FE218DF80010E0
:1028C0006A46012100F02EFB002802D00F20A071E3
:1028D000D7E5E079010001D11121A171012801D1D1
:1028E0001221A17102287FF4CCAD1320A071C8E59C
:1028F00045F25F06666100202071221D01213046ED
:1029000000F076FB002802D01020A071B9E52079F4
:10291000252108420FD04FF40041284600F0B3FCB7
:10292000C0F10102D2B24FF40041284600F0B2FCDF
:102930001020A071A5E5400602D50E20A071A0E5EB
:102940001020A0719DE5AB486189421801212069E2
:1029500000F0E8FA002802D01120A07191E560890A
:10296000411CA289914207DA1021A171401C6081AB
:102970002069401C206184E51420A07181E59D48F8
:10298000618942180421206900F0CCFA002802D0A5
:102990001220A07175E56089001D6081A189024641
:1029A0000B4692B29A420DD21022A27180B2081A3E
:1029B000042803DA0020E0710E20A0712069001DB8
:1029C00020615EE51420A0715BE58A4861894218A8
:1029D0004021206900F0A6FA002802D01320A0713F
:1029E0004FE5608940306081A18902460B4692B272
:1029F0009A420DD21022A27180B2081A402803DA3E
:102A00000120E0710E20A07120694030206138E57E
:102A10001520A07135E545F25F066661207900F06A
:102A2000F5002071221D0121304600F07BFA0028BC
:102A300002D01420A07124E51820A07121E5002007
:102A400060814FF4004020614FF40050A0810020CD
:102A500020721620A07114E50020608102466B46AA
:102A600002E01A54481C6081618908464028F8DB5E
:102A70006A464021206900F0BBFA002802D01620E7
:102A8000A071FEE4002060810CE06A46125C594BA4
:102A9000267A00EB8610185C824201D01720A071C4
:102AA000481C608161890846402803DA0A46A389E8
:102AB0009A42EAD3A07917283FF4E3ACA0894028D2
:102AC0000EDB4038A08180B200283FF4DAAC2069E8
:102AD00040302061207A401C20721620A071D0E482
:102AE0000020A0814FF40041284600F0CCFBC0F14B
:102AF0000102D2B24FF40041284600F0CBFB19206E
:102B0000A071BEE400F0DFFA45F25B006061802155
:102B10006171621D012100F005FA45F25C006061FF
:102B20007F216171621D012100F0FCF9002144F652
:102B3000010000F012FBFF2144F6020000F00DFB43
:102B4000012144F6030000F008FBFE2144F60400D6
:102B500000F003FB002144F6050000F0FEFAFF211F
:102B600044F6060000F0F9FA002144F6070000F0F0
:102B7000F4FAFF2144F6080000F0EFFA002144F6D1
:102B8000090000F0EAFAFF2144F60A0000F0E5FA35
:102B90004FF490406061AA206071621D01214FF4E2
:102BA000904000F0BFF9002801D01920A0714FF427
:102BB0007A7000F02DFC1420A07162E44FF40051F3
:102BC000284600F060FBC0F10102D2B24FF4005180
:102BD000284600F05FFB00224FF48071284600F089
:102BE00059FBEBE7EC00000854010020000801400D
:102BF000000C01406C03000819490843194908609A
:102C0000704770B403781A460121C478002C1CD098
:102C1000144B1B6803F4E063C3F5E0631B0A4478BC
:102C2000C3F10405AC4085780F26DE4006EA0503B3
:102C300023431B010C4CA354007800F01F02914069
:102C40000A4A401142F8201007E003F01F0001FA81
:102C500000F00749521141F8220070BC7047000093
:102C60000000FA050CED00E000E400E000E100E007
:102C700080E100E0A4480178002903D1012101701E
:102C800000F0D0BB70470020A049C88400F044BCCD
:102C900010B500F06EFB4FF47A7000F076FB002464
:102CA0000CE000F062FB4FF4FA7000F06EFB00F0F5
:102CB00060FB4FF4FA7000F068FB641C042CF0DB3E
:102CC00000240AE000F051FBFA2000F05EFB00F067
:102CD00050FBFA2000F059FB641C042CF2DB00F0DE
:102CE00044FB8B49022000F06AFC4FF6FF7000F0B5
:102CF00072FC401E8041C00F10BD38B5834CE38C80
:102D00001D000ED1482393FBF0F31D46ADB24343A3
:102D1000C3F14803B3EB500F01DB6D1CADB2EB0107
:102D20009BB203FB01F0811100EB5161C9112184B9
:102D3000A0EBC110402802DB208C401C208403FB48
:102D400002F0811100EB5161C9116184A0EBC11047
:102D5000402802DB608C401C6084208C618C091848
:102D6000A184084680B201EBD00080B200F040FCA4
:102D7000A08C4008A084002032BD2DE9F843044611
:102D80000D461646614FDFF88C81DFF8849100E034
:102D9000761E388C3880B91C00226B1E02E021F8A8
:102DA000020B5B1E5BB2002B0BD4A4464CFA03FC57
:102DB0005FEACC7CF3D5B7F822C021F802CB521CD5
:102DC000EFE7D20703D5788C21F8020B01E021F858
:102DD000020B002008803946E81C80B200F00DFC90
:102DE00000F01AFC4946022000F0E9FB4FF6FF70A4
:102DF00000F0F1FB4FF40041D8F80C20120402D58A
:102E0000C8F8141001E0C8F81010D8F80C2012040B
:102E100002D5C8F8141001E0C8F8101000280ED12F
:102E20004FF48041404600F02EFAC0F10102D2B2C8
:102E30004FF48041404600F02DFA012018E0B88C94
:102E4000B9F80210884212D24FF48041404600F097
:102E50001AFAC0F10102D2B24FF48041404600F0AC
:102E600019FA304680B2002892D1022000E00020FA
:102E7000BDE8F283F8B505460E460024244F3946D6
:102E80000A2000F09CFB4FF6FF7000F0A4FB2146E7
:102E90002970002833D01D498A8C388813469842FF
:102EA0002DD2204610E0831937F81330944663453D
:102EB00009D22B784FF0010CC0F1070E0CFA0EFC72
:102EC0004CEA03032B70401C0828ECD34FF4004558
:102ED000114E3068000401D5B56000E07560488C83
:102EE000088020464880022000F087FB00F094FB19
:102EF0003068000401D5B56002E0756000E001248F
:102F00002046F2BD00000000780100202C010020C6
:102F100000000020000801400C0801406422032149
:102F200000202AE72DE9F84380460C46154620008C
:102F300059D0002D57D0002602E0B844BE19B6B2D1
:102F40002046864251DA801BFF2801DDFF2701E081
:102F5000A71BFFB240468DF800004FEA18208DF8FD
:102F600001004FEA18408DF802004FEA18608DF812
:102F70000300642203210220FFF7FFFE002832D164
:102F8000002208213846FFF7F8FE00282BD1002246
:102F900008210098000CC0B2FFF7EFFE002822D1F4
:102FA000002208210098000AC0B2FFF7E6FE0028C0
:102FB00019D1002208210098C0B2FFF7DEFE0028D8
:102FC00011D14FF0000901E009F101095FFA89F917
:102FD0004846B842B1DA642208218019285CFFF71C
:102FE000CCFE0028F0D0012000E00020BDE8F283F4
:102FF0002DE9F84380460C46154620005ED0002D92
:103000005CD0002602E0B844BE19B6B22046864223
:1030100056DA801BFF2801DDFF2701E0A71BFFB266
:1030200040468DF800004FEA18208DF801004FEA65
:1030300018408DF802004FEA18608DF803006422F2
:1030400003210120FFF799FE002837D10022082133
:103050003846FFF792FE002830D100220821009860
:10306000000CC0B2FFF789FE002827D100220821FA
:103070000098000AC0B2FFF780FE00281ED100228F
:1030800008210098C0B2FFF778FE002816D1012170
:10309000A819FFF7EFFE002810D14FF0010901E059
:1030A00009F101095FFA89F94846B842ABDA022111
:1030B00080192844FFF7DEFE0028F1D0012000E04F
:1030C0000020BDE8F28380B500F033F8002144F61B
:1030D000010000F042F8FF2144F6020000F03DF844
:1030E000002144F6030000F038F8FF2144F6040004
:1030F00000F033F8002144F6050000F02EF8FF211F
:1031000044F6060000F029F8002144F6070000F01C
:1031100024F8FF2144F6080000F01FF8002144F6CF
:10312000090000F01AF8FF2144F60A00BDE8044047
:1031300013E080B580208DF800006A46012145F239
:103140005B00FFF7EFFE7F208DF800006A4601214B
:1031500045F25C00FFF7E6FE01BD13B50446002012
:103160008DF8000001AA01212046FFF7DBFE4FF495
:10317000FA7000F04DF96A4601212046FFF738FF4A
:103180009DF800009DF804108842EBD14FF4FA70CE
:1031900000F03EF913BD0000104A0029116802D06A
:1031A00008431060704721EA0000106070470C4A25
:1031B0000029116802D008431060704721EA00001E
:1031C00010607047074A0029116802D00843106058
:1031D000704721EA000010607047000014100240A0
:1031E000181002401C100240F0B40023CC7804F008
:1031F0000F02E40601D58C7822430C88E4B2002C3F
:103200001CD0046803E0482D00D106615B1C082B2C
:1032100013D2012505FA03F635460F882F40AF4239
:10322000F4D19D000F27AF40BC4302FA05F52C43B3
:10323000CD78282DE7D14661E8E704600B88FF2BA5
:103240001FDD4468002319E0012503F1080605FA93
:1032500006F635460F882F40AF420ED19D000F274E
:10326000AF40BC4302FA05F52C43CD78282D00D1A0
:103270004661CD78482D00D106615B1C082BE3D355
:103280004460F0BC70470022C068084200D00122B0
:1032900010467047002A01D00161704741617047B4
:1032A00070B4194A002801D5946900E01468C0F38D
:1032B000034583B200F44016B6F5401F06D124F052
:1032C0007064156825F0706515600FE0C60206D5BC
:1032D000032606FA05F5AC4344F0706406E0450D9C
:1032E0002D0103FA05F5AC4344F07064002904D0C5
:1032F000410D090103FA01F10C43002801D5946145
:1033000000E0146070BC70470400014070B402F02B
:103310000F030F24082908DA05688E00B44025EA57
:103320000404B3402343036009E04568A1F10806A3
:10333000B600B44025EA0404B34023434360930637
:1033400007D5012303FA01F1D20601D5016100E09E
:10335000416170BC7047012202FA01F101617047BE
:10336000012202FA01F14161704738220821244804
:10337000CCE710B5224C08212046FFF7F1FF0322CD
:1033800008212046BDE81040C0E711B581B006E035
:10339000019C204600F03CF80198001B0190019828
:1033A000002805D0019817498842F1D3164CF0E760
:1033B00013BD1648016821F002010160016841F067
:1033C0000401016001684908490001600021816031
:1033D00070470E4900EBC002D0004860086840F01A
:1033E0000100086070470948006800F480307047A9
:1033F0000648016849084900016000218160704762
:10340000000C0140410D0300400D030010E000E0FE
:1034100080B5FFF7DEFFFFF7E6FF0028FBD0BDE831
:103420000140E5E710B594B001210846FFF7B4FE6E
:1034300001210846FFF7C6FE894C204600F022F91C
:1034400008A800F0B0F98748089010200A900020E2
:103450000B900C9080200D904FF480700E904FF4E4
:1034600080600F90002010904FF480501190002049
:10347000129008A9204600F07BF90121204600F0B7
:103480009FF901A800F039FA0020019002908DF810
:103490000C0001A94FF0804000F0BAF904A800F038
:1034A00035FA6020ADF810000120ADF812000020C0
:1034B000ADF816000220ADF8180004A94FF08040C6
:1034C00000F0EEF908214FF0804000F04BFA0121A6
:1034D0004FF0804000F03AFA01224FF480514FF053
:1034E000804000F029FA01214FF0804000F018FAE6
:1034F00001215D48FFF7D4FE4FF40060ADF80000F5
:103500001C208DF8030003208DF8020069465748FF
:10351000FFF76AFE14B010BD10B58CB0012108464B
:10352000FFF73AFE01210420FFF74CFE514C2046E4
:1035300000F0A8F8684600F036F94F4800900020E7
:10354000029003900490802005904FF480700690C4
:103550004FF480600790002008904FF400500990CD
:1035600000200A906946204600F002F90121204619
:1035700000F026F93E48018C4FF6EE7211400184AE
:10358000018B018C4FF4817202834FF6FD72114062
:1035900041F02001018401894FF60872114041F089
:1035A000E4010181018C41F011010184818941F420
:1035B00000718181012100F0B3F90CB010BD2D4ADA
:1035C00013685B085B0013605060D160106840F0C6
:1035D00001001060704729490A68920704D4401E10
:1035E000024692B2002AF7D102224A6080B27047A6
:1035F000234908830120088070470122204B1A804C
:10360000174A13685B085B0013605060D160106854
:1036100040F0010010607047184801688901FCD52E
:103620004FF000714160704710B5104C04220B211F
:103630002046FFF76BFE382208212046BDE81040E7
:10364000FFF764BE282206210848FFF75FBE062167
:103650000648FFF780BE06210448FFF781BE000040
:10366000800002404000004000021800000C0140B1
:1036700000080040080002403408004000000240FA
:103680001400004001684FF6FE72114001600021F5
:10369000016041608160C1604F49884205D14F4857
:1036A000016841F00F01016070474D49884205D122
:1036B0004A48016841F0F001016070474949884279
:1036C00005D14648016841F4706101607047464980
:1036D000884205D14148016841F47041016070475A
:1036E0004249884205D13D48016841F4702101609A
:1036F00070473F49884205D13848016841F470015C
:10370000016070473B49884205D13448016841F067
:103710007061016070473849884205D137480168B7
:1037200041F00F01016070473549884205D13348A7
:10373000016841F0F001016070473249884205D1CB
:103740002E48016841F47061016070472E4988423B
:1037500005D12A48016841F47041016070472B4946
:10376000884204D12548016841F470210160704706
:1037700002686FF30E128B681A430B6A1A430B69C7
:103780001A434B691A438B691A43CB691A434B6A34
:103790001A438B6A1A430260CA6842600A688260F0
:1037A0004968C16070470021016041608160C1606B
:1037B000016141618161C161016241628162704761
:1037C0000029016803D041F00101016070474FF604
:1037D000FE72114001607047080002400400024080
:1037E0001C000240300002404400024058000240E9
:1037F0006C000240800002400804024004040240C1
:103800001C040240300402404404024058040240B8
:1038100010B40388DFF85C21904212D0DFF86C41CD
:10382000A0420ED0B0F1804F0BD0DFF84C41A04247
:1038300007D0DFF84841A04203D0DFF84441A0425E
:1038400004D14FF68F7423404C882343DFF8344172
:10385000A04208D0DFF83041A04204D04FF6FF4428
:103860002340CC88234303808B8883850B88038582
:1038700090420FD0DFF8142190420BD0DFF81021D6
:10388000904207D0DFF80C21904203D0DFF80821E6
:10389000904201D1097A01860121818210BC7047D2
:1038A00070B4028C4EF6FF731A400284048C828836
:1038B000838B48F6FF452B400D8843EA05234DF6E0
:1038C000FF752C400D894E88354344EA0534DFF8F6
:1038D000A450A84203D0DFF8B450A84205D14BF65B
:1038E000FF752A408D8942EA851282808383C988C8
:1038F000A0F84010048470BC70474FF6FF718180BF
:1039000000210180C1804180017270470021018047
:1039100041808180C180018141818181C181704765
:103920000029018803D041F00101018070474FF662
:10393000FE72114001807047002A828902D0114333
:103940008181704722EA0101818170470029018845
:1039500003D041F08001018070474FF67F72114023
:1039600001807047828B4FF2FF731A4042EA0121B7
:1039700081837047002C0140000400400008004093
:10398000000C0040001000400014004000340140D2
:1039900000400140004401400048014080B53948E2
:1039A000016841F0010101604168374A11404160FE
:1039B0000168364A11400160016821F480210160EC
:1039C000416821F4FE0141604FF41F01816000F065
:1039D00005F84FF000602E49086001BD00BF82B0BD
:1039E0000020019000902748016841F48031016077
:1039F000016801F4003100910199491C019100997D
:103A0000002903D10199B1F5A06FF1D10168490CEA
:103A100001F0010100910099012930D11D490A6886
:103A200042F010020A600A68920892000A600A686E
:103A300042F002020A6041684160416841604168A9
:103A400041F480614160416821F47C11416041682A
:103A500041F4E8114160016841F080710160016842
:103A60008901FCD54168890889004160416841F0BD
:103A700002014160416801F00C010829FAD102B04D
:103A800070470000001002400000FFF8FFFFF6FE44
:103A900008ED00E00020024019E050F8041BCB07BD
:103AA00044BFA9F101035918121F0023042A41F849
:103AB000043BF9D25FEA827C0B4604D54FF0000C40
:103AC000A1F800C09B1CD10744BF0021197050F819
:103AD000042B002AE1D1704710B507497944183109
:103AE000064C7C44163404E00A68081D11448847DB
:103AF0000146A142F8D110BD0800000014000000EA
:103B000099FFFFFF7C010000000000200000000082
:103B100000F00BF8002801D0FFF7DEFF0020AFF324
:103B20000080FEF76FFC00F002F80120704700F003
:103B300001B800000746384600F002F8FBE7000035
:103B400080B5AFF30080024A11001820ABBEFBE73E
:103B5000260002007047FEE7FEE7FEE7FEE770473B
:103B60007047704770470000014880470148004790
:103B70009D390008793B0008AFF30080AFF3008067
:103B8000FFF7C6FFFFF7E6BFFFF7E5BFFFF7E4BFAC
:103B9000FFF7E3BFFFF7E2BFFFF7E1BFFFF7E0BFCB
:103BA000FFF7DFBFFFF7DEBFFFF7FEBFFFF7FEBF88
:103BB000FFF7FEBFFFF7FEBFFFF7FEBFFFF7FEBF39
:103BC000FFF7FEBFFFF7FEBFFFF7FEBFFFF7FEBF29
:103BD000FFF7FEBFFFF7FEBFFFF7FEBFFFF7FEBF19
:103BE000FFF7FEBFFFF7FEBFFFF7FEBFFFF7FEBF09
:103BF000FFF7FEBFFFF7FEBFFFF7FEBFFFF7FEBFF9
:103C0000FFF7FEBFFFF7FEBFFFF7FEBFFFF7FEBFE8
:103C1000FFF7FEBFFFF7FEBFFFF7FEBFFFF7FEBFD8
:103C2000FFF7FEBFFFF7FEBFFFF7FEBFFFF7FEBFC8
:103C3000FFF7FEBFFFF7FEBFFFF7FEBFFFF7FEBFB8
:103C4000FFF7FEBFFFF7FEBFFFF7FEBFFFF7FEBFA8
:043C5000FFF7FEBFBD
:0400000508003B793B
:00000001FF
